:020000040800F2
:1000000000800120E92100087D2100087F210008EF
:1000100081210008832100088521000800000000DC
:100020000000000000000000000000008721000820
:1000300089210008000000008B2100088D210008A4
:100040003922000839220008392200083922000824
:100050003922000839220008392200083922000814
:100060003922000839220008392200083922000804
:1000700039220008392200083922000839220008F4
:100080003922000839220008392200080000000047
:1000900000000000000000000000000039220008FD
:1000A00039220008392200083922000839220008C4
:1000B00039220008392200083922000839220008B4
:1000C00039220008392200083922000839220008A4
:1000D00039220008392200083922000800000000F7
:1000E00039220008392200083922000800000000E7
:1000F000000000000000000000000000392200089D
:1001000000000000392200083922000839220008C6
:1001100000000000000000000000000000000000DF
:100120003922000839220008392200083922000843
:10013000392200080000000000000000000000005C
:10014000000000000000000000000000392200084C
:100150003922000839220008392200083922000813
:1001600039220008392200080000000000000000C9
:10017000000000000000000000000000000000007F
:10018000000000003922000800000000000000000C
:040190003922000808
:1001980010B5054C237833B9044B13B10448AFF3B9
:1001A80000800123237010BD7400002000000000AF
:1001B8005C33000808B5034B1BB103490348AFF390
:1001C800008008BD00000000780000205C330008B3
:1001D80081F0004102E000BF83F0004330B54FEAF0
:1001E80041044FEA430594EA050F08BF90EA020F5D
:1001F8001FBF54EA000C55EA020C7FEA645C7FEAF0
:10020800655C00F0E2804FEA5454D4EB5555B8BF12
:100218006D420CDD2C4480EA020281EA030382EA83
:10022800000083EA010180EA020281EA0303362D15
:1002380088BF30BD11F0004F4FEA01314FF4801CE8
:100248004CEA113102D0404261EB410113F0004FFA
:100258004FEA03334CEA133302D0524263EB4303B1
:1002680094EA050F00F0A780A4F10104D5F1200E4F
:100278000DDB02FA0EFC22FA05F2801841F10001AA
:1002880003FA0EF2801843FA05F359410EE0A5F17E
:1002980020050EF1200E012A03FA0EFC28BF4CF0AF
:1002A800020C43FA05F3C01851EBE37101F0004565
:1002B80007D54FF0000EDCF1000C7EEB00006EEB72
:1002C8000101B1F5801F1BD3B1F5001F0CD34908FC
:1002D8005FEA30004FEA3C0C04F101044FEA445253
:1002E80012F5800F80F09A80BCF1004F08BF5FEADA
:1002F800500C50F1000041EB045141EA050130BDBA
:100308005FEA4C0C404141EB010111F4801FA4F15C
:100318000104E9D191F0000F04BF01460020B1FAB1
:1003280081F308BF2033A3F10B03B3F120020CDAE9
:100338000C3208DD02F1140CC2F10C0201FA0CF0C7
:1003480021FA02F10CE002F11402D8BFC2F1200C2C
:1003580001FA02F120FA0CFCDCBF41EA0C019040E2
:10036800E41AA2BF01EB0451294330BD6FEA04042B
:100378001F3C1CDA0C340EDC04F11404C4F1200216
:1003880020FA04F001FA02F340EA030021FA04F328
:1003980045EA030130BDC4F10C04C4F1200220FA7F
:1003A80002F001FA04F340EA0300294630BD21FABD
:1003B80004F0294630BD94F0000F83F4801306BF83
:1003C80081F480110134013D4EE77FEA645C18BF77
:1003D8007FEA655C29D094EA050F08BF90EA020F0E
:1003E80005D054EA000C04BF1946104630BD91EA06
:1003F800030F1EBF0021002030BD5FEA545C05D109
:100408004000494128BF41F0004130BD14F5800447
:100418003CBF01F5801130BD01F0004545F0FE41BB
:1004280041F470014FF0000030BD7FEA645C1ABFF0
:10043800194610467FEA655C1CBF0B46024650EA27
:10044800013406BF52EA033591EA030F41F4002153
:1004580030BD00BF90F0000F04BF0021704730B5D9
:100468004FF4806404F132044FF000054FF00001AE
:1004780050E700BF90F0000F04BF0021704730B56F
:100488004FF4806404F1320410F0004548BF404244
:100498004FF000013EE700BF42004FEAE2014FEA99
:1004A80031014FEA02701FBF12F07F4393F07F4F74
:1004B80081F06051704792F0000F14BF93F07F4FA6
:1004C800704730B54FF4607401F0004521F00041E9
:1004D80020E700BF50EA010208BF704730B54FF06F
:1004E80000050AE050EA010208BF704730B511F074
:1004F800004502D5404261EB41014FF4806404F1AC
:1005080032045FEA915C3FF4DCAE4FF003025FEA2D
:10051800DC0C18BF03325FEADC0C18BF033202EBB5
:10052800DC02C2F1200300FA03FC20FA02F001FA0F
:1005380003FE40EA0E0021FA02F11444C1E600BFAE
:1005480070B54FF0FF0C4CF4E06C1CEA11541DBF61
:100558001CEA135594EA0C0F95EA0C0F00F0DEF82C
:100568002C4481EA030621EA4C5123EA4C5350EA11
:10057800013518BF52EA033541F4801143F4801362
:1005880038D0A0FB02CE4FF00005E1FB02E506F0F3
:100598000042E0FB03E54FF00006E1FB03569CF048
:1005A800000F18BF4EF0010EA4F1FF04B6F5007F4E
:1005B80064F5407404D25FEA4E0E6D4146EB0606C0
:1005C80042EAC62141EA55514FEAC52040EA5E5049
:1005D8004FEACE2EB4F1FD0C88BFBCF5E06F1ED8F3
:1005E800BEF1004F08BF5FEA500E50F1000041EB2A
:1005F800045170BD06F0004646EA010140EA0200D7
:1006080081EA0301B4EB5C04C2BFD4EB0C0541EAF8
:10061800045170BD41F480114FF0000E013C00F30D
:10062800AB8014F1360FDEBF002001F0004170BD31
:10063800C4F10004203C35DA0C341BDC04F114044A
:10064800C4F1200500FA05F320FA04F001FA05F2D6
:1006580040EA020001F0004221F0004110EBD370A3
:1006680021FA04F642EB06015EEA430E08BF20EACF
:10067800D37070BDC4F10C04C4F1200500FA04F372
:1006880020FA05F001FA04F240EA020001F0004104
:1006980010EBD37041F100015EEA430E08BF20EA77
:1006A800D37070BDC4F1200500FA05F24EEA020EBF
:1006B80020FA04F301FA05F243EA020321FA04F0EE
:1006C80001F0004121FA04F220EA020000EBD370A5
:1006D8005EEA430E08BF20EAD37070BD94F0000FA5
:1006E8000FD101F00046400041EB010111F4801FD9
:1006F80008BF013CF7D041EA060195F0000F18BF8A
:10070800704703F00046520043EB030313F4801FC5
:1007180008BF013DF7D043EA0603704794EA0C0F7F
:100728000CEA135518BF95EA0C0F0CD050EA410695
:1007380018BF52EA4306D1D181EA030101F0004112
:100748004FF0000070BD50EA410606BF104619463A
:1007580052EA430619D094EA0C0F02D150EA013646
:1007680013D195EA0C0F05D152EA03361CBF104687
:1007780019460AD181EA030101F0004141F0FE4126
:1007880041F470014FF0000070BD41F0FE4141F4AA
:10079800780170BD70B54FF0FF0C4CF4E06C1CEAAA
:1007A80011541DBF1CEA135594EA0C0F95EA0C0F5F
:1007B80000F0A7F8A4EB050481EA030E52EA03351A
:1007C8004FEA013100F088804FEA03334FF080553B
:1007D80045EA131343EA12634FEA022245EA111568
:1007E80045EA10654FEA00260EF000419D4208BF19
:1007F800964244F1FD0404F5407402D25B084FEAC6
:100808003202B61A65EB03055B084FEA32024FF471
:1008180080104FF4002CB6EB020E75EB030E22BFCE
:10082800B61A754640EA0C005B084FEA3202B6EB8E
:10083800020E75EB030E22BFB61A754640EA5C003D
:100848005B084FEA3202B6EB020E75EB030E22BFCD
:10085800B61A754640EA9C005B084FEA3202B6EBCE
:10086800020E75EB030E22BFB61A754640EADC008D
:1008780055EA060E18D04FEA051545EA16754FEAEF
:1008880006164FEAC30343EA52734FEAC2025FEA0D
:100898001C1CC0D111F4801F0BD141EA00014FF09C
:1008A80000004FF0004CB6E711F4801F04BF01436D
:1008B8000020B4F1FD0C88BFBCF5E06F3FF6AFAE89
:1008C800B5EB030C04BFB6EB020C5FEA500C50F119
:1008D800000041EB045170BD0EF0004E4EEA11319C
:1008E80014EB5C04C2BFD4EB0C0541EA045170BDA3
:1008F80041F480114FF0000E013C90E645EA060EE7
:100908008DE60CEA135594EA0C0F08BF95EA0C0F14
:100918003FF43BAF94EA0C0F0AD150EA01347FF45C
:1009280034AF95EA0C0F7FF425AF104619462CE733
:1009380095EA0C0F06D152EA03353FF4FDAE104696
:10094800194622E750EA410618BF52EA43067FF4E7
:10095800C5AE50EA41047FF40DAF52EA43057FF477
:10096800EBAE12E74FF0FF3C06E000BF4FF0010C82
:1009780002E000BF4FF0010C4DF804CD4FEA410CE6
:100988007FEA6C5C4FEA430C18BF7FEA6C5C1BD0B3
:1009980001B050EA410C0CBF52EA430C91EA030F34
:1009A80002BF90EA020F0020704710F1000F91EA91
:1009B800030F58BF994208BF90422CBFD8176FEA5F
:1009C800E37040F0010070474FEA410C7FEA6C5C2D
:1009D80002D150EA013C07D14FEA430C7FEA6C5C34
:1009E800D6D152EA033CD3D05DF8040B704700BF60
:1009F8008446104662468C461946634600E000BFAE
:100A080001B5FFF7B7FF002848BF10F1000F01BD7F
:100A18004DF808EDFFF7F4FF0CBF012000205DF84A
:100A280008FB00BF4DF808EDFFF7EAFF34BF0120CF
:100A380000205DF808FB00BF4DF808EDFFF7E0FF68
:100A480094BF012000205DF808FB00BF4DF808EDB9
:100A5800FFF7CEFF94BF012000205DF808FB00BF20
:100A68004DF808EDFFF7C4FF34BF012000205DF802
:100A780008FB00BF4FEA410C7FEA6C5C02D150EAE8
:100A8800013C0AD14FEA430C7FEA6C5C02D152EA7E
:100A9800033C02D14FF0000070474FF0010070474F
:100AA8004FEA4102B2F1E04324BFB3F5001CDCF188
:100AB800FE5C0DD901F0004C4FEAC0024CEA5070C0
:100AC800B2F1004F40EB830008BF20F001007047EF
:100AD80011F0804F21D113F13872BCBF01F00040F2
:100AE800704741F480114FEA5252C2F11802C2F124
:100AF800200C10FA0CF320FA02F018BF40F00100A5
:100B08004FEAC1234FEAD32303FA0CFC40EA0C0056
:100B180023FA02F34FEA4303CCE77FEA625307D193
:100B280050EA01331EBF4FF0FE4040F440007047CA
:100B380001F0004040F0FE4040F40000704700BF64
:100B480053B94AB9002908BF00281CBF4FF0FF312C
:100B58004FF0FF3000F07AB9ADF1080C6DE904CE22
:100B680000F006F8DDF804E0DDE9022304B0704780
:100B78002DE9F0478C460D460446089E002B51D1BE
:100B88008A4217466DD9B2FA82FEBEF1000F0BD029
:100B9800CEF1200C01FA0EF520FA0CFC02FA0EF741
:100BA8004CEA050C00FA0EF44FEA174A250CBCFB78
:100BB800FAF81FFA87F90AFB18CC45EA0C4508FB36
:100BC80009F3AB420AD9ED1908F1FF3280F023810D
:100BD800AB4240F22081A8F102083D44ED1AA4B2CC
:100BE800B5FBFAF00AFB105544EA054400FB09F985
:100BF800A14509D9E41900F1FF3380F00A81A14524
:100C080040F2078102383C44A4EB090440EA08405A
:100C18000021002E61D024FA0EF4002334607360A2
:100C2800BDE8F0878B4207D9002E54D0002186E812
:100C380021000846BDE8F087B3FA83F1002940F0A7
:100C48008E80AB4202D3824200F2FA80841A65EBAE
:100C580003050120AC46002E3FD086E81010BDE801
:100C6800F08712B90127B7FBF2F7B7FA87FEBEF192
:100C7800000F34D1EB1B3A0C1FFA87FC0121B3FBA0
:100C8800F2F8250C02FB183345EA03450CFB08F380
:100C9800AB4207D9ED1908F1FF3002D2AB4200F29E
:100CA800D1808046ED1AA3B2B5FBF2F002FB1055D5
:100CB80043EA05440CFB00FCA44507D9E41900F1FC
:100CC800FF3302D2A44500F2B8801846A4EB0C0406
:100CD80040EA08409DE731463046BDE8F087CEF14E
:100CE800200405FA0EF307FA0EF720FA04F83A0C76
:100CF80025FA04F448EA0308B4FBF2F14FEA184570
:100D080002FB11441FFA87FC45EA044501FB0CF37A
:100D1800AB4200FA0EF409D9ED1901F1FF3080F069
:100D28008A80AB4240F2878002393D44EB1A1FFAB1
:100D380088F5B3FBF2F002FB103345EA034500FBEC
:100D48000CF3AB4207D9ED1900F1FF386FD2AB4273
:100D58006DD902383D44EB1A40EA01418FE7C1F1F1
:100D6800200722FA07F88B4005FA01F448EA030342
:100D780020FA07FE4FEA134CFD404EEA040EB5FB7D
:100D8800FCF94FEA1E440CFB19551FFA83F844EA94
:100D9800054509FB08F4AC4202FA01F200FA01FA2F
:100DA80008D9ED1809F1FF3043D2AC4241D9A9F175
:100DB80002091D442D1B1FFA8EFEB5FBFCF00CFB2F
:100DC80010554EEA054400FB08F8A04507D9E41879
:100DD80000F1FF3529D2A04527D902381C4440EA42
:100DE8000940A4EB0804A0FB02894C45C6464D46C1
:100DF80015D312D056B1BAEB0E0364EB050404FA0E
:100E080007F7CB401F43CC40376074600021BDE832
:100E1800F0871846F8E69046E0E6C245EAD2B8EB15
:100E2800020E69EB03050138E4E72846D7E7404698
:100E380091E78146BEE7014678E702383C4445E73A
:100E4800084608E7A8F102083D442BE7704700BFB1
:100E580038B50E4A0E4B054618784FF47A73B3FB33
:100E6800F0F31068B0FBF3F000F0A8FA044658B9A4
:100E78000F2D09D8024629464FF0FF3000F06AFAD4
:100E8800044B20461D6038BD012038BD08000020F5
:100E9800000000200400002008B50B4B1A6842F43B
:100EA80000721A601A6842F480621A601A6842F482
:100EB80080721A60032000F03BFA0020FFF7C8FF99
:100EC80001F0C8F8002008BD003C0240034A044B6A
:100ED80011681B780B441360704700BFA400002002
:100EE80000000020014B1868704700BFA4000020D4
:100EF80038B50446FFF7F6FF631C1CBF054B1B788B
:100F0800054618BFE418FFF7EDFF401B8442FAD8E6
:100F180038BD00BF0000002010B50446002800F0CE
:100F28009980036C23B9436480F83C3001F0DAF807
:100F3800236CDB0600F18C80236C23F4885323F0A8
:100F4800020343F002032364434B5A6822F44032FD
:100F58005A605A6861680A435A60236821695A6866
:100F680022F480725A605A6842EA01225A605A682A
:100F7800A16822F040725A605A680A435A609A6817
:100F8800E16822F400629A609A680A439A603349D9
:100F9800A26A8A4250D0996821F070619960996874
:100FA8000A439A609A68E16A22F040529A609A6805
:100FB8000A439A609A68A16922F002029A609A68C4
:100FC80042EA41029A60226A002A3DD05A68616A60
:100FD80042F400625A605A6822F460425A605A68C1
:100FE800013942EA41325A60DA6AE16922F4700250
:100FF800DA62DA6A013942EA0152DA629A68216BE6
:1010080022F400729A609A6842EA41229A609A68C9
:10101800616922F480629A609A68002042EA81221B
:101028009A606064236C23F0030343F00103236494
:10103800002384F83C3010BD9A6822F070629A60F0
:101048009A6822F04052B4E75A6822F40062CAE76C
:101058000120EDE7012010BD002301400100000F31
:1010680082B00023019390F83C30012B4ED001232D
:1010780080F83C3003689A68D10705D59A68D2078A
:1010880014D4002002B070479A68214942F0010246
:101098009A60204A1268B2FBF1F202EB4202019216
:1010A800019A002AEAD0019A013AF8E7026C22F480
:1010B800E06222F0010242F4807202645A6851052B
:1010C80041BF026C22F4405242F480520264026C26
:1010D80012F480521CBF426C22F0060242640022C5
:1010E80080F83C206FF022021A600B4A5268D20640
:1010F80008D1986810F04050C3D19A6842F08042F5
:101108009A60BFE7054A9342BBD1F2E70220B9E7EC
:1011180040420F0008000020002301400020014049
:1011280090F83C30012B17D0012380F83C3003683D
:101138009A6822F001029A609B68DB0707D4036C67
:1011480023F4885323F0010343F0010303640023CD
:1011580080F83C30184670470220704703689A6848
:1011680070B5560504460D460BD59B68D80508D5BD
:10117800236C43F020032364002384F83C300120CF
:1011880070BDFFF7AFFE064623681A6892070CD5B4
:101198006FF012021A60226C42F4007222649A689C
:1011A80012F0405F13D0002070BD691CEDD045B926
:1011B800236C43F004032364002384F83C300320A9
:1011C80070BDFFF78FFE801B8542DDD2F0E7A26974
:1011D800002AE8D1DA6A12F4700F02D09B685B0526
:1011E800E1D4236C23F480732364206C10F48050C2
:1011F800D9D1236C43F00103236470BD0368D86C14
:1012080070470000F7B50023019390F83C30012B9C
:1012180000F083800D6804688A680123092D80F82E
:101228003C30AEB22AD906EB4603E7681E3B4FF0C6
:10123800070E0EFA03FE27EA0E07E760E76802FAD0
:1012480003F33B43E3604A68062A4FEA820325D842
:101258001344676B591F1F238B4027EA03036363FB
:10126800626B06FA01F1114361632D4B9C4234D045
:10127800002380F83C30184603B0F0BD276905EB21
:1012880045034FF0070E0EFA03FE27EA0E07276103
:10129800276902FA03F33B432361D4E70C2A0ED8EB
:1012A8001344216BA3F123021F23934021EA030374
:1012B8002363236B06FA02F21A432263D5E7134429
:1012C800E16A413B1F229A4021EA0202E262E26A95
:1012D80006FA03F11143E162C7E7122D04D1114A5E
:1012E800536843F480035360A5F11003012BBFD862
:1012F8000C4A5368102D43F400035360B8D10A4BCD
:101308000A4A1B68B3FBF2F20A2353430193019B79
:10131800002BADD0019B013BF8E70220ACE700BFF2
:1013280000200140002301400800002040420F0037
:10133800074AD36823F4E0631B041B0C43F0BF6324
:10134800000243F4003300F4E0600343D3607047C5
:1013580000ED00E0174B30B5DC68C4F30224C4F19B
:101368000703251D042B28BF0423062D4FF0010574
:1013780005FA03F303F1FF338CBF033C0024194043
:10138800A14005FA04F4013C2240002842EA010287
:101398004FEA0212AFBF00F1604000F00F00064BA9
:1013A800D2B2A5BF00F56140D2B21A5480F800232A
:1013B80030BD00BF00ED00E014ED00E00138B0F1F1
:1013C800807F0AD2064B074A5860F02182F8231022
:1013D8000020072298601A6070470120704700BFFC
:1013E80010E000E000ED00E0044B1A6804280CBF90
:1013F80042F0040222F004021A60704710E000E094
:10140800704708B5FFF7FCFF08BD00002DE9F04F55
:1014180085B00B68DFF89C81644A01934FF001099D
:101428000023019C09FA03F707EA0406B74240F0D3
:10143800AD804C6824F0100ABAF1020F16D14FEAB9
:10144800D30C00EB8C0C03F0070BDCF820504FEAB0
:101458008B0B4FF00F0E0EFA0BFE25EA0E0E0D69E0
:1014680005FA0BF545EA0E05CCF820504FEA430C77
:101478000325D0F800B005FA0CF5ED4304F0030E8F
:101488000BEA050B0EFA0CFE0AF1FF3A4EEA0B0EB8
:10149800BAF1010F0095C0F800E015D8D0F808E0BF
:1014A80005EA0E0ECD6805FA0CFA4AEA0E0EC0F8E7
:1014B80008E0D0F804E02EEA0707C4F3001E0EFA8D
:1014C80003FE4EEA07074760C768009D3D408F68E6
:1014D80007FA0CF73D43C560E50057D54FF0000B00
:1014E800CDF80CB0D8F84470314D47F48047C8F8AF
:1014F8004470D8F8447007F480470397039F23F09B
:10150800030707F1804707F59C3703F0030CD7F86A
:1015180008A04FEA8C0C4FF00F0E0EFA0CFEA842F2
:101528002AEA0E0E39D005F58065A84237D005F5B0
:101538008065A84235D005F58065A84233D005F509
:101548008065A84214BF0725042505FA0CF545EA6D
:101558000E05BD601568F74314F4803F0CBF3D408D
:1015680035431560556814F4003F0CBF3D403543C2
:101578005560956814F4801F0CBF3D403543956055
:10158800D568A40254BF3D403543D5600133102BC4
:101598007FF447AF05B0BDE8F08F5D46D5E701257C
:1015A800D3E70225D1E70325CFE700BF003C014080
:1015B80000000240003802400AB181617047090406
:1015C800FBE700002DE9F341044618B9012002B0F9
:1015D800BDE8F0810368DD0710D42368980758D464
:1015E80023681A0700F19A8023685B0700F1B88026
:1015F800A269002A40F019810020E8E7A64B9A6802
:1016080002F00C02042A07D09A6802F00C02082A99
:101618000AD15B68590207D59F4B1B689A03DCD532
:101628006368002BD9D1D1E763689B4DB3F5803F40
:1016380011D12B6843F480332B60FFF753FC964D90
:1016480006462B689B03C8D4FFF74CFC801B642814
:10165800F7D90320BBE7B3F5A02F04D12B6843F4D7
:1016680080232B60E5E72A6822F480322A602A6802
:1016780022F480222A60002BDFD1FFF733FC0646D4
:101688002B689F03A9D5FFF72DFC801B6428F7D989
:10169800DFE7814B9A6812F00C0F07D09A6802F0C6
:1016A8000C02082A11D15B685E020ED47A4B1A68C4
:1016B800950702D5E268012A88D11A68216922F0C3
:1016C800F80242EAC1021A608AE7E268734BB2B1D3
:1016D80001221A60FFF706FC6F4D06462B68980733
:1016E80007D52B68226923F0F80343EAC2032B606D
:1016F80076E7FFF7F7FB801B0228EFD9A9E71A6006
:10170800FFF7F0FB644D06462B6899077FF568AF35
:10171800FFF7E8FB801B0228F6D99AE76269604B5D
:101728007AB101221A60FFF7DDFB5B4D06466B6F4D
:101738009F073FF559AFFFF7D5FB801B0228F6D965
:1017480087E71A60FFF7CEFB534D06466B6F980785
:101758007FF54AAFFFF7C6FB801B0228F6D978E76A
:101768004D4B1A6C12F0805228D101921A6C42F03B
:1017780080521A641B6C03F080530193019B01266D
:10178800484D2B68D9051BD5A368434D012B27D19C
:101798002B6F43F001032B67FFF7A4FB3E4D074671
:1017A80041F288382B6F9B0739D5002E3FF420AFC4
:1017B800394A136C23F08053136419E70026DFE7D6
:1017C8002B6843F480732B60FFF78CFB07462B686C
:1017D800DA05D9D4FFF786FBC01B0228F7D938E70A
:1017E800052B04D12B6F43F004032B67D0E72A6F36
:1017F80022F001022A672A6F22F004022A67002BCE
:10180800CAD1FFF76FFB41F2883807462B6F98075C
:10181800CBD5FFF767FBC01B4045F7D919E7FFF7A2
:1018280061FBC01B4045BDD913E71B4DAB6803F0F6
:101838000C03082B3FF4CAAE1B4E0023022A336068
:1018480034D1FFF74FFB07462B6899011ED4226A53
:10185800E3691343626A43EA8213E26A43EA026372
:10186800A26A0D4C5208013A43EA02436B60012315
:101878003360FFF737FB054623689A013FF5BCAE96
:10188800FFF730FB401B0228F6D9E2E6FFF72AFBF8
:10189800C01B0228D8D9DCE60038024000004742C5
:1018A800800E47420070004060004742FFF71AFB75
:1018B80004462B689B017FF59FAEFFF713FB001BC7
:1018C8000228F6D9C5E600BF134908B58B6803F0AE
:1018D8000C03042B03D0082B03D0104808BD104874
:1018E80008BD4A684B68496813F4800314BF0C4864
:1018F8000A48C1F3881118BF002302F03F02A1FB78
:101908000001FFF71DF9044B5B68C3F30143013382
:101918005B00B0FBF3F008BD003802400024F4007F
:1019280000127A002DE9F0410D46044610B9012055
:10193800BDE8F081444B1A6802F00F028A4228D3AE
:1019480021688F072DD4C80740D43F4B1A6802F08E
:101958000F02954266D3226851076CD4130707D546
:101968003A4A2169936823F4604343EAC1039360C8
:10197800FFF7AAFF354B364A9B68C3F30313D35CC2
:10198800D840344B18600020FFF762FA0020BDE809
:10199800F081CAB21A701B6803F00F039942C6D1CE
:1019A800CEE72A4B11F0040F1EBF9A6842F4E052AA
:1019B8009A600E0742BF9A6842F460429A609A6839
:1019C800A06822F0F00202439A60BCE762681F4BED
:1019D800012A1DD11B6813F4003FA8D01B4EB36821
:1019E80023F003031343B360FFF77CFA41F288380E
:1019F8000746B368626803F00C03B3EB820FA4D008
:101A0800FFF770FAC01B4045F3D90320BDE8F08109
:101A1800911E01291B6802D813F0007FDDE713F03F
:101A2800020FDAE7EAB21A701B6803F00F039D424F
:101A38007FF47DAF8FE70549E0688B6823F4E053B6
:101A480003438B608AE700BF003C02400038024035
:101A58007833000808000020014B1868704700BF61
:101A680008000020044B054A9B68C3F38223D35C1B
:101A7800034A1068D840704700380240883300088D
:101A880008000020044B054A9B68C3F34233D35C2B
:101A9800034A1068D840704700380240883300086D
:101AA800080000202DE9F0470668C2683369C1695B
:101AB80023F4405313433361044683680069F26892
:101AC8000343606922F41642034322F00C020B43DD
:101AD8001343F3607369A26923F440731343B1F5A8
:101AE800004F73617A4B7CD19E4203D003F580632B
:101AF8009E4244D1FFF7C6FF192505FB00F3606835
:101B08004FF064094000B3FBF0F3B3FBF9F34FEA7D
:101B18000318FFF7B7FF636868435B00B0FBF3F790
:101B2800FFF7B0FF636868435B00B0FBF3F3B3FBF8
:101B3800F9F309FB1373DB003233B3FBF9F35B00F2
:101B480003F4F877FFF79EFF626868435200B0FB22
:101B5800F2FAFFF797FF636868435B00B0FBF3F3A3
:101B6800B3FBF9F309FB13A3DB003233B3FBF9F33F
:101B780003F0070343443B44B360BDE8F087FFF735
:101B880071FF192505FB00F360684FF064094000F8
:101B9800B3FBF0F3B3FBF9F34FEA0318FFF762FF67
:101BA800636868435B00B0FBF3F7FFF75BFF6368AC
:101BB80068435B00B0FBF3F3B3FBF9F309FB137362
:101BC800DB003233B3FBF9F35B0003F4F877FFF77C
:101BD80049FF626868435200B0FBF2FAFFF742FF20
:101BE800B9E79E4202D03B4B9E4240D1FFF74AFFE5
:101BF800676819254FF0640905FB00F3BF00B3FBC4
:101C0800F7F3B3FBF9F31F01FFF73CFF6368684381
:101C18009B00B0FBF3F8FFF735FF636868439B0050
:101C2800B0FBF3F3B3FBF9F309FB13831B01323366
:101C3800B3FBF9F303F0F008FFF724FF6268684389
:101C48009200B0FBF2FAFFF71DFF636868439B0040
:101C5800B0FBF3F3B3FBF9F309FB13A31B01323316
:101C6800B3FBF9F303F00F0343EA080383E7FFF735
:101C7800F9FE676819254FF0640905FB00F3BF00FA
:101C8800B3FBF7F3B3FBF9F31F01FFF7EBFE636850
:101C980068439B00B0FBF3F8FFF7E4FE6368684312
:101CA8009B00B0FBF3F3B3FBF9F309FB13831B01B0
:101CB8003233B3FBF9F303F0F008FFF7D3FE6268A1
:101CC80068439200B0FBF2FAFFF7CCFEBDE700BF15
:101CD800001001400014014010B5044640B390F8CC
:101CE800393003F0FF021BB980F8382000F01CFAE5
:101CF8002268242384F83930D36823F40053D3604E
:101D08002046FFF7CFFE23681A6922F490421A6131
:101D18005A6922F02A025A61DA6842F40052DA60FB
:101D280000202023E06384F8393084F83A3010BD6D
:101D3800012010BD30B595B00022274B0192196CD7
:101D480041F0805119641B6C244903F080530193BE
:101D5800019B02920B6823F4404343F400430B6059
:101D68000B680F9203F440430293029B01230B93E9
:101D780010230C9310934FF4A87302241193042595
:101D8800072308A808940E9412951393FFF71AFCDA
:101D980000B1FEE70F23039305904FF4805307909B
:101DA800214603A804940693FFF7BCFD044600B13E
:101DB800FEE7FFF751FE4FF47A73B0FBF3F0FFF73D
:101DC800FDFA2846FFF710FB224621464FF0FF3068
:101DD800FFF7C0FA15B030BD00380240007000406F
:101DE80080B58AB00024FFF757F8FFF7A3FF884BA8
:101DF80001941A6B874842F004021A631A6B02F0C6
:101E080004020192019A02941A6B42F080021A634A
:101E18001A6B02F080020292029A03941A6B42F043
:101E280001021A631A6B02F001020392039A0494E6
:101E38001A6B42F002021A631B6B03F0020322467C
:101E480004932021049BFFF7B7FB4FF4005305933D
:101E580005A9714B7148069307940125FFF7D6FA37
:101E680020236C48059305A9069507940894FFF765
:101E7800CDFA6B486B4B84604FF4E13680E848003C
:101E88000C23C460046143618461C461FFF724FFCB
:101E980000B1FEE7644C654920624FF080734FF44F
:101EA800803284E80E00E062614BE0600226206325
:101EB80020462561A561A362E6616561FFF72CF8FC
:101EC80000B1FEE70590072305A92046069507936C
:101ED800FFF798F900B1FEE705A920460595069693
:101EE800FFF790F900B1FEE79FED458B46A7D7E9CC
:101EF8000067DFF850814F4D4FF000092046C8F8C1
:101F08000090FFF7ADF864212046FFF727F9C5F8E0
:101F18000090DFF83491C2462B68092B51DD0A2363
:101F2800D8F8000090FBF3F080B2A9F80000FEF7A3
:101F380091FAB0EE481AF0EE681A41EC100B00F076
:101F48009DF932463B4651EC100BFEF7F9FAFEF7C5
:101F5800A7FD394BDFF8F480384D18604FF00009C1
:101F680064212046C8F80090FFF7F8F8C5F80090FB
:101F7800DFF8DC90C2462B68092B31DD0A23D8F83C
:101F8800000090FBF3F080B2A9F80000FEF762FAB7
:101F9800B0EE481AF0EE681A41EC100B00F06EF93A
:101FA80032463B4651EC100BFEF7CAFAFEF778FDB5
:101FB800234B18602046FFF7B3F86420FEF798FF1C
:101FC80097E72046FFF71AF9DAF80030A9F8000079
:101FD80013FA80F02B68CAF8000001332B609BE7E6
:101FE8002046FFF70BF9DAF80030A9F8000013FAD9
:101FF80080F02B68CAF8000001332B60BBE700BFF4
:102008004E62105839B4F6BF0000000010EEF740D9
:102018000038024000000240000021100008024081
:10202800F800002000440040AC00002000200140DF
:102038000100000FF400002094000020A8000020F8
:10204800980000209C00002090000020A0000020A4
:102058009200002013B5224B002400945A6C42F4DD
:1020680080425A645A6C02F480420092009A0194A9
:102078001A6C42F080521A641B6C03F0805301936F
:102088000720019BFFF754F9224621466FF00B0009
:10209800FFF760F9224621466FF00A00FFF75AF968
:1020A800224621466FF00900FFF754F922462146DF
:1020B8006FF00400FFF74EF9224621466FF0030047
:1020C800FFF748F9224621466FF00100FFF742F971
:1020D800224621464FF0FF30FFF73CF902B010BD11
:1020E800003802407FB502680D4B9A4214D1002196
:1020F80003F58C3300915A6C0A4842F480725A6492
:102108005B6C039103F480730093009B01A9032384
:1021180001930293FFF77AF907B05DF804FB00BF5B
:1021280000200140000002407FB502680E4B9A4231
:1021380017D100230D4A0093116C0D4841F400316A
:102148001164126C039302F400320092009A049313
:102158000C2201920723022201A902920593FFF79C
:1021680055F907B05DF804FB004400400038024010
:10217800000002407047FEE7FEE7FEE7FEE7704713
:102188007047704708B5FEF7A1FEBDE80840FFF7A5
:1021980038B900000F49D1F8883043F47003C1F80A
:1021A80088300D4B1A68002042F001021A609860CE
:1021B8001A6822F0847222F480321A60074A5A6040
:1021C8001A6822F480221A60D8604FF000638B608E
:1021D800704700BF00ED00E00038024010300024D6
:1021E800DFF834D0002103E00C4B5B584350043136
:1021F8000B480C4B42189A42F6D30B4A02E00023D4
:1022080042F8043B094B9A42F9D3FFF7C3FF00F0A9
:1022180011F8FFF7E5FD704700800120E83300085A
:102228000000002074000020740000203801002005
:10223800FEE7000070B50D4E0D4CA41BA410002540
:10224800A54209D10B4E0C4C01F084F8A41BA41034
:102258000025A54205D170BD56F8253098470135AF
:10226800EEE756F8253098470135F2E7E0330008E5
:10227800E0330008E0330008E43300082DE9F04FAC
:102288002DED048B8DB057EC106B55EC114B00F015
:102298006FF9AE4BB0EE408AF0EE608A93F9009089
:1022A800B9F1FF3F98465FD022462B462046294683
:1022B800FEF7E0FB8346002856D132463B463046BF
:1022C8003946FEF7D7FB0190E8B1002200232046EB
:1022D8002946FEF79DFB002846D0012302939C4B1C
:1022E80003939C4BCDF828B00022B9F1020FCDE939
:1022F8000467CDE90645CDE9082333D002A800F0EC
:1023080008FF48BB5EE04FF0000A4FF0000B524652
:102318005B4630463946FEF77BFB4BEC19AB002891
:1023280055D052465B4620462946FEF771FB80464B
:1023380018B301230293864B0393019B0A93CDE9BB
:102348000467CDE90645CDE908ABB9F1000FD5D052
:10235800804B0022CDE908230A9B1BB100F0F4FF53
:102368000A9B03609DED088BB0EE480AF0EE680A00
:102378000DB0BDEC048BBDE8F08F45EC104B00F0C0
:10238800C0FE0028F0D052465B4620462946FEF79C
:1023980049FB0028E8D0012302936D4B03936B4B54
:1023A800CDF8288093F90030CDE90467CDE90645DA
:1023B80013B9CDE908ABA1E767490020CDE90801C9
:1023C800022B9BD100F0C0FF21230360C4E7B0EECD
:1023D800480AF0EE680A00F094FE0190002840F0E8
:1023E8008A8047EC106B00F08CFE002800F0838098
:1023F80045EC104B00F085FE00287CD053EC182BE0
:1024080018EE100A1946FEF735FB98F90090504B64
:10241800B0B101220393019B02920A93CDE90467AC
:10242800CDE90645B9F1000FC3D052465B46504688
:102438005946FEF7AFF9B9F1020FCDE90801C0E737
:102448000322029203930A90CDE90467CDE9064579
:10245800B9F1000F2CD1414B4FF06042CDE9082370
:10246800304652465B463946FEF7DCFA002866D00D
:1024780000223B4B20462946FEF762F804460D46EB
:1024880045EC104B00F050FE204653EC102B29462B
:10249800FEF7BEFA20B9334B4FF06042CDE908236E
:1024A80098F90030022B4AD100F04EFF22238CE726
:1024B8002D4B0022CDE90823304652465B4639466B
:1024C800FEF7B0FA0028EBD00022254B204629461B
:1024D800FEF736F804460D4645EC104B00F024FE96
:1024E800204653EC102B2946FEF792FA0028D7D144
:1024F8000022194BD2E70022002351EC180BFEF7FB
:1025080087FA00283FF430AF47EC106B00F0F9FD74
:1025180000283FF429AF45EC104B00F0F2FD0028ED
:102528003FF422AF04230293094B039300230A9339
:10253800CDE90467CDE906458DED089BB0E702A813
:1025480000F0E7FD00287FF407AFADE70C0000209E
:10255800903300080000F03F0000F0FFFFFFEF4756
:102568000000E03FFFFFEFC70000F07F0000000021
:102578002DE9F04F91B08DED001B9DE8040257EC5A
:10258800106B29F0004858EA020310EE10AA3D46E5
:1025980000F0BD84784B27F000449C4209DC03D14D
:1025A8003EB9A0450DDC01E0984502DC98450ED106
:1025B8006AB104F1404404F5801454EA0A0300F0B7
:1025C800A6846E4811B0BDE8F04F00F0A5BD002DFF
:1025D80053DA6B4B98454DDCA3F1547398454CDDA9
:1025E8004FEA2853A3F2FF33142B26DDC3F134033B
:1025F80022FA03F101FA03F39A423ED101F00101F4
:10260800C1F1020B002A5BD15B4B984524D104F140
:10261800404303F5801353EA0A0300F07884594BCA
:102628009C422DDDB9F1000F80F275840020002155
:1026380041EC100B11B0BDE8F08F002A3ED1C3F178
:10264800140348FA03F101FA03F3984540F06B8448
:1026580001F00101C1F1020B4B4B984518D1B9F1BA
:10266800000F80F25C84484932463B460020FEF762
:1026780091F8DDE74FF0020BC4E74FF0000BC1E71C
:10268800B9F1000FD2DA9DE8090003F10041CFE764
:10269800B9F1804F06D132463B4610461946FDF740
:1026A8004FFFC5E7394B99450AD1002D08DB47ECA8
:1026B800106B11B0BDE8F04F00F06CBC4FF0000B90
:1026C80047EC106B00F016FD51EC100BBAF1000F3F
:1026D80027D124B12C4B25F040429A4221D1B9F19F
:1026E800000F05DA02460B4600202749FEF752F88C
:1026F800002D9DDA04F1404404F5801454EA0B03DC
:1027080008D102460B4610461946FDF765FD0246FC
:102718000B46ACE7BBF1010F8AD101F10043194622
:1027280086E7ED0F6B1E0D935BEA030302D1324679
:102738003B46E8E7164B984540F3FE8003F10473E7
:1027480098450ADD0F4B9C420DDCB9F1000FBFF62E
:102758006DAF07A3D3E900239FE70E4B9C42F4DD3E
:10276800094B9C4218DDB9F1000FF2DC5EE700BFAF
:102778009C7500883CE4377E0000F07F93330008A6
:10278800FFFF3F43FFFFEF3F0000F03F0000E03F47
:102798000000E041FEFFEF3F0022634BFDF71CFD08
:1027A80055A3D3E9002304460D46FDF7C9FE54A3FB
:1027B800D3E9002306460F4620462946FDF7C0FE0A
:1027C8000022CDE90201594B20462946FDF7B8FE03
:1027D80002460B464CA1D1E90001FDF7FDFC22465B
:1027E8002B46FDF7ADFE02460B4600205049FDF78B
:1027F800F3FC22462B468046894620462946FDF7AB
:102808009FFE02460B4640464946FDF799FE40A307
:10281800D3E90023FDF794FE02460B46DDE90201E9
:10282800FDF7DAFC02460B4604460D4630463946AB
:10283800FDF7D4FC0020CDE9040132463B46FDF704
:10284800CBFC02460B4620462946FDF7C5FC0D9AEF
:102858000BF1FF33134306460F4640F0EB819FED23
:102868002E7BDDE90045002422462B46DDE90001E8
:102878008DED027BFDF7B0FCDDE90423FDF760FE7A
:10288800DDE900238046894630463946FDF758FE83
:1028980002460B4640464946FDF7A0FC22462B4619
:1028A80080468946DDE90401FDF74AFE0B460446E9
:1028B8000D46024649464046CDE90045FDF78EFCE7
:1028C8001C4B994206460F468B4640F3F78201F1AE
:1028D8003F4303F5E003034300F0EA8110A3D3E983
:1028E8000023DDE90201FDF72BFE0DA3D3E9002348
:1028F800D5E600BFAFF30080000000604715F73F42
:1029080044DF5DF80BAE543E555555555555D53FEA
:10291800FE822B654715F73F000000000000F0BF5E
:102928009C7500883CE4377E0000F03F0000D03FF3
:102938000000E03FFFFF8F40B4F5801F4FF000021A
:1029480005DAD34BFDF7FCFD6FF034020C46231576
:10295800A3F2FF3313440793CE4BC4F3130444F09C
:102968007F559C4245F4401508DDCB4B9C4240F313
:102978005E81079B01330793A5F580154FF0000A88
:102988004FEACA030C930C9AC44B134493ED007B93
:10299800294653EC172B8DED0A7BCDE90801FDF78D
:1029A8001BFCDDE90A2306460F46DDE90801FDF7B1
:1029B80015FC02460B460020B949FDF7EBFECDE9B0
:1029C8000E0102460B4630463946FDF7B9FDCDE902
:1029D8000401DDE90434CDE9023400230293DDE982
:1029E80002896D1045F0005505F50025002205EB1C
:1029F8008A434046494614461D46FDF7A1FD024656
:102A08000B4630463946FDF7E7FBDDE90A23064663
:102A18000F4620462946FDF7DFFB02460B46DDE957
:102A28000801FDF7D9FB42464B46FDF789FD0246F2
:102A38000B4630463946FDF7CFFBDDE90E23FDF79F
:102A48007FFDDDE90423CDE9080110461946FDF7AD
:102A580077FD7BA3D3E9002304460D46FDF770FDFF
:102A680079A3D3E90023FDF7B9FB22462B46FDF7EE
:102A780067FD77A3D3E90023FDF7B0FB22462B4679
:102A8800FDF75EFD74A3D3E90023FDF7A7FB2246FB
:102A98002B46FDF755FD72A3D3E90023FDF79EFBF6
:102AA80022462B46FDF74CFD6FA3D3E90023FDF723
:102AB80095FB224606460F462B4620462946FDF73B
:102AC8003FFD02460B4630463946FDF739FD424682
:102AD80004460D464B46DDE90401FDF77FFBDDE9C1
:102AE8000823FDF72DFD22462B46FDF777FB4246CE
:102AF80006460F464B4640464946FDF721FD002253
:102B0800684BCDE90A01FDF769FB32463B46FDF704
:102B180065FB02980D46044602460B464046494668
:102B2800FDF70EFD0022804689465E4B2046294669
:102B3800FDF752FBDDE90A23FDF74EFB02460B4683
:102B480030463946FDF748FBDDE90423FDF7F8FC7C
:102B5800224606460F462B46DDE90801FDF7F0FC44
:102B680002460B4630463946FDF738FB06460F4607
:102B780002460B4640464946FDF730FB02983CA307
:102B8800D3E9002304460D46FDF7DAFC4246CDE9B9
:102B980008014B4620462946FDF71EFB02460B4618
:102BA80030463946FDF718FB33A3D3E90023FDF778
:102BB800C7FC33A3D3E9002306460F46204629461F
:102BC800FDF7BEFC02460B4630463946FDF706FBCC
:102BD8000C9A354B1344D3E90023FDF7FFFA04465A
:102BE80007980D46FDF746FC0C9A304B1344D3E981
:102BF800008906460F4622462B46DDE90801FDF707
:102C0800EDFA42464B46FDF7E9FA32463B46FDF7F8
:102C1800E5FA029832463B46CDE90401FDF7DCFAB5
:102C280042464B46FDF7D8FADDE9082307E64FF0A0
:102C3800010AA5E69FED147B13E600BFAFF3008001
:102C4800EF4E454A287ECA3F65DBC9934A86CD3F89
:102C580001411DA96074D13F4D268F515555D53F6F
:102C6800FFAB6FDBB66DDB3F033333333333E33F07
:102C7800000000E009C7EE3FFD033ADC09C7EE3F5C
:102C8800F5015B14E02F3EBE000000000000F03F9D
:102C9800000040438E98030079B60B009833000873
:102CA8000000F03F00000840B8330008A8330008CF
:102CB800B6A3D3E9002340464946FDF78FFA2246DA
:102CC800CDE904012B4630463946FDF785FA024620
:102CD8000B46DDE90401FDF7C3FE00287FF4FEADD5
:102CE800A54A2BF00043934240F30C811B154FF487
:102CF800801AA3F2FE334AFA03F35B44C3F30A5281
:102D08009E4EA2F2FF321641C3F3130A002023EAB3
:102D18000601C2F114024AF4801A4AFA02FABBF117
:102D2800000F02460B4620462946B8BFCAF1000AE2
:102D3800FDF752FACDE9000142464B46DDE90001B4
:102D4800FDF74CFA00207AA3D3E9002304460D4688
:102D5800FDF7F6FBDDE9002306460F462046294627
:102D6800FDF73AFA02460B4640464946FDF734FA63
:102D780071A3D3E90023FDF7E3FB71A3D3E9002393
:102D88008046894620462946FDF7DAFB02460B466F
:102D980040464946FDF722FA04460D4602460B46D0
:102DA80030463946FDF71AFA32463B468046894690
:102DB800FDF712FA02460B4620462946FDF70CFAA3
:102DC800424606460F464B4640464946FDF7B8FB85
:102DD8005DA3D3E9002304460D46FDF7B1FB5CA3D0
:102DE800D3E90023FDF7F8F922462B46FDF7A8FBA7
:102DF80059A3D3E90023FDF7F1F922462B46FDF745
:102E08009FFB57A3D3E90023FDF7E6F922462B469B
:102E1800FDF796FB54A3D3E90023FDF7DFF922461B
:102E28002B46FDF78DFB02460B4640464946FDF70B
:102E3800D3F904460D4602460B4640464946FDF77F
:102E48007FFB0022CDE900014FF080432046294650
:102E5800FDF7C2F902460B46DDE90001FDF79AFCD1
:102E6800324604460D463B4640464946FDF768FB58
:102E780032463B46FDF7B2F902460B462046294644
:102E8800FDF7AAF942464B46FDF7A6F902460B465E
:102E980000203B49FDF7A0F901EB0A54B4F5801F67
:102EA80002460B4631DA504643EC102B00F0C4F9C9
:102EB80051EC100BDDE90223FFF7F1BB314B21F098
:102EC80000469E427FF70CAF2F4B0B4403430BD0B9
:102ED80027A3D3E90023DDE90201FDF731FB24A391
:102EE800D3E90023FFF7DBBB22462B46FDF774F935
:102EF80002460B4640464946FDF79EFD00283FF432
:102F0800EFAEE5E74FF0000A16E72146D2E70020CA
:102F18001B49FFF78DBBDDE90001FFF789BB304690
:102F28003946FFF785BB9346FFF796BBAFF30080A2
:102F380000000000432EE63FEF39FAFE422EE63F3E
:102F4800396CA80C615C20BED0A4BE726937663E9D
:102F5800F16BD2C541BDBB3E2CDE25AF6A56113F91
:102F680093BDBE166CC1663F3E5555555555C53F78
:102F780059F3F8C21F6EA5010000E03FFFFF0F00E4
:102F88000000F03FFFCB904000346F3FFE822B657E
:102F98004715973C2DE9F04155EC104B544EAE4384
:102FA80010EE100A2B462A46214613D110EE102A9D
:102FB8002B4610EE100A2946FDF7C2FA02460B46C8
:102FC80020462946FDF70AF904460D4645EC104B04
:102FD800BDE8F081002D10DC25F000463043F5D027
:102FE8005DB110EE102A2B4620462946FDF7F4F86D
:102FF80002460B46FDF7CEFBE6E71B150CD1002A6F
:103008006DD00020D6026ED5441E1B1BC0F12004D3
:1030180021FA04F422438140A3F2FF33C2F31302DE
:10302800DD0742F4801242BF520002EBD172490020
:103038005810002502EBD1731A44490016232C4678
:103048004FF40016A7199742DEBFD21BBC19AD1961
:103058005200013B02EBD1724FEA56064FEA41019A
:10306800F0D14FF0200E9C464FF00046A24206EBEE
:103078000C0702DC12D18F4210D8002F07EB060C88
:1030880034DABCF1000F31DB04F10108121B8F4266
:1030980088BF02F1FF32C91B3344444602EBD177A3
:1030A800BEF1010E3A444FEA41014FEA5606DDD11E
:1030B8000A4306D05C1C13BF01330135734623F065
:1030C80001036A105B08E90702F17F5202F500125A
:1030D80048BF43F0004302EB00551C4676E7CA0A96
:1030E800153B49058BE7520001308BE7A046CDE739
:1030F8000000F07F53EC102B23F0004343EC102B1F
:10310800704710EE903A43F0004000F58010C00F71
:1031180070470020704700009FED010B704700BF0B
:10312800000000000000F87FF7B551EC100BC1F368
:103138000A54A4F2FF36132E10EE107A0B460246FC
:103148004FEAD17558DC002E2BDA21F000420243F9
:1031580023D0C1F31302024351421143090B5B0C04
:1031680001F400215B0441EA0307314B03EBC5037B
:103178003946D3E9006710EE100A32463B46FDF7A0
:103188002DF8CDE900013B463246DDE90001FDF7A7
:1031980023F821F0004343EAC57141EC100B03B05A
:1031A800F0BD244C344101EA04070743F5D0610817
:1031B80003EA010002430BD023EA01014FF4802304
:1031C800132E43FA06F30CBF4FF0004200220B43C4
:1031D8001946174B03EBC505D5E9004510462B46A4
:1031E8002246FCF7FBFFCDE9000122462B46DDE92C
:1031F8000001FCF7F1FFD0E7332E08DDB6F5806F4C
:10320800CBD110EE102A0B46FCF7E8FFC5E7A4F275
:1032180013464FF0FF34F4402042BED061080F42FD
:103228001FBF4FF0804227EA010132410A43CFE72E
:10323800C8330008FFFF0F0070B555EC104BC5F3FD
:103248000A5206462B46B2B925F0004323433CD028
:103258000022334B294610EE100AFDF771F9314A66
:10326800964204460D460B4613DA29A3D3E90023F8
:10327800FDF766F90AE040F2FF718A420CD110EEC0
:10328800102A2B4620462946FCF7A8FF04460D467F
:103298001BE0C1F30A52363A324440F2FE718A42C8
:1032A8000BDD45EC114B9FED1C0B00F03FF81AA30A
:1032B800D3E9002351EC100BDAE7002A08DD23F0EC
:1032C800FF4323F4E00343EA025545EC104B70BD7D
:1032D80012F1350F0DDA4CF250339E4245EC114B8A
:1032E800E1DC9FED0B0B00F021F809A3D3E90023E3
:1032F800E0E723F0FF43363223F4E00343EA0255C4
:10330800204629460022084BB2E700BFAFF30080F1
:1033180059F3F8C21F6EA5019C7500883CE4377EFE
:1033280000005043B03CFFFF0000903C53EC102BD2
:1033380011EE900A23F0004100F0004041EA00033A
:1033480043EC102B70470000014B1868704700BF12
:1033580010000020F8B500BFF8BC08BC9E467047B6
:0C336800F8B500BFF8BC08BC9E467047DA
:10337800000000000000000001020304060708091D
:103388000000000001020304706F770000000000D5
:10339800000000000000F03F000000000000F83FBF
:1033A80000000000000000000000004003B8E23FF9
:1033B800000000000000000006D0CF43EBFD4C3EAB
:1033C800000000000000304300000000000030C38F
:0833D800A0D7FF7F01000000F7
:0433E000BD01000823
:0433E4009901000843
:1033E80001000000100000000024F40001000000AB
:1033F8001400002000000000000000000000000091
:1034080000000000000000000000000000000000B4
:1034180000000000000000000000000000000000A4
:103428000000000000000000000000000000000094
:103438000000000000000000000000000000000084
:103448000000000000000000000000000000000074
:043458000000000070
:04000005080021E9E5
:00000001FF
